{"abi":[{"type":"constructor","inputs":[{"name":"_factory","type":"address","internalType":"address"},{"name":"_usdc","type":"address","internalType":"address"},{"name":"_weth","type":"address","internalType":"address"},{"name":"_bankCapUsd8","type":"uint256","internalType":"uint256"}],"stateMutability":"nonpayable"},{"type":"fallback","stateMutability":"payable"},{"type":"receive","stateMutability":"payable"},{"type":"function","name":"ADMIN_ROLE","inputs":[],"outputs":[{"name":"","type":"bytes32","internalType":"bytes32"}],"stateMutability":"view"},{"type":"function","name":"DEFAULT_ADMIN_ROLE","inputs":[],"outputs":[{"name":"","type":"bytes32","internalType":"bytes32"}],"stateMutability":"view"},{"type":"function","name":"FACTORY","inputs":[],"outputs":[{"name":"","type":"address","internalType":"contract IUniswapV2Factory"}],"stateMutability":"view"},{"type":"function","name":"USDC","inputs":[],"outputs":[{"name":"","type":"address","internalType":"contract IERC20"}],"stateMutability":"view"},{"type":"function","name":"WETH","inputs":[],"outputs":[{"name":"","type":"address","internalType":"address"}],"stateMutability":"view"},{"type":"function","name":"depositETH","inputs":[{"name":"amountOutMin","type":"uint256","internalType":"uint256"}],"outputs":[],"stateMutability":"payable"},{"type":"function","name":"depositToken","inputs":[{"name":"tokenIn","type":"address","internalType":"address"},{"name":"amountIn","type":"uint256","internalType":"uint256"},{"name":"amountOutMin","type":"uint256","internalType":"uint256"}],"outputs":[],"stateMutability":"nonpayable"},{"type":"function","name":"getRoleAdmin","inputs":[{"name":"role","type":"bytes32","internalType":"bytes32"}],"outputs":[{"name":"","type":"bytes32","internalType":"bytes32"}],"stateMutability":"view"},{"type":"function","name":"grantRole","inputs":[{"name":"role","type":"bytes32","internalType":"bytes32"},{"name":"account","type":"address","internalType":"address"}],"outputs":[],"stateMutability":"nonpayable"},{"type":"function","name":"hasRole","inputs":[{"name":"role","type":"bytes32","internalType":"bytes32"},{"name":"account","type":"address","internalType":"address"}],"outputs":[{"name":"","type":"bool","internalType":"bool"}],"stateMutability":"view"},{"type":"function","name":"pause","inputs":[],"outputs":[],"stateMutability":"nonpayable"},{"type":"function","name":"paused","inputs":[],"outputs":[{"name":"","type":"bool","internalType":"bool"}],"stateMutability":"view"},{"type":"function","name":"renounceRole","inputs":[{"name":"role","type":"bytes32","internalType":"bytes32"},{"name":"callerConfirmation","type":"address","internalType":"address"}],"outputs":[],"stateMutability":"nonpayable"},{"type":"function","name":"rescueERC20","inputs":[{"name":"token","type":"address","internalType":"address"},{"name":"to","type":"address","internalType":"address"},{"name":"amount","type":"uint256","internalType":"uint256"}],"outputs":[],"stateMutability":"nonpayable"},{"type":"function","name":"revokeRole","inputs":[{"name":"role","type":"bytes32","internalType":"bytes32"},{"name":"account","type":"address","internalType":"address"}],"outputs":[],"stateMutability":"nonpayable"},{"type":"function","name":"s_bankCapUsd8","inputs":[],"outputs":[{"name":"","type":"uint256","internalType":"uint256"}],"stateMutability":"view"},{"type":"function","name":"s_depositOps","inputs":[],"outputs":[{"name":"","type":"uint256","internalType":"uint256"}],"stateMutability":"view"},{"type":"function","name":"s_totalUsdDeposited8","inputs":[],"outputs":[{"name":"","type":"uint256","internalType":"uint256"}],"stateMutability":"view"},{"type":"function","name":"s_totalUsdcInVault","inputs":[],"outputs":[{"name":"","type":"uint256","internalType":"uint256"}],"stateMutability":"view"},{"type":"function","name":"s_usdcBalances","inputs":[{"name":"","type":"address","internalType":"address"}],"outputs":[{"name":"","type":"uint256","internalType":"uint256"}],"stateMutability":"view"},{"type":"function","name":"supportsInterface","inputs":[{"name":"interfaceId","type":"bytes4","internalType":"bytes4"}],"outputs":[{"name":"","type":"bool","internalType":"bool"}],"stateMutability":"view"},{"type":"function","name":"unpause","inputs":[],"outputs":[],"stateMutability":"nonpayable"},{"type":"function","name":"updateBankCap","inputs":[{"name":"newCapUsd8","type":"uint256","internalType":"uint256"}],"outputs":[],"stateMutability":"nonpayable"},{"type":"function","name":"withdraw","inputs":[{"name":"amountUSDC","type":"uint256","internalType":"uint256"}],"outputs":[],"stateMutability":"nonpayable"},{"type":"event","name":"BankCapUpdated","inputs":[{"name":"oldCap","type":"uint256","indexed":false,"internalType":"uint256"},{"name":"newCap","type":"uint256","indexed":false,"internalType":"uint256"}],"anonymous":false},{"type":"event","name":"DepositAndSwap","inputs":[{"name":"user","type":"address","indexed":true,"internalType":"address"},{"name":"tokenIn","type":"address","indexed":true,"internalType":"address"},{"name":"amountIn","type":"uint256","indexed":false,"internalType":"uint256"},{"name":"usdcReceived","type":"uint256","indexed":false,"internalType":"uint256"}],"anonymous":false},{"type":"event","name":"Paused","inputs":[{"name":"account","type":"address","indexed":false,"internalType":"address"}],"anonymous":false},{"type":"event","name":"RescueERC20","inputs":[{"name":"token","type":"address","indexed":true,"internalType":"address"},{"name":"to","type":"address","indexed":true,"internalType":"address"},{"name":"amount","type":"uint256","indexed":false,"internalType":"uint256"}],"anonymous":false},{"type":"event","name":"RoleAdminChanged","inputs":[{"name":"role","type":"bytes32","indexed":true,"internalType":"bytes32"},{"name":"previousAdminRole","type":"bytes32","indexed":true,"internalType":"bytes32"},{"name":"newAdminRole","type":"bytes32","indexed":true,"internalType":"bytes32"}],"anonymous":false},{"type":"event","name":"RoleGranted","inputs":[{"name":"role","type":"bytes32","indexed":true,"internalType":"bytes32"},{"name":"account","type":"address","indexed":true,"internalType":"address"},{"name":"sender","type":"address","indexed":true,"internalType":"address"}],"anonymous":false},{"type":"event","name":"RoleRevoked","inputs":[{"name":"role","type":"bytes32","indexed":true,"internalType":"bytes32"},{"name":"account","type":"address","indexed":true,"internalType":"address"},{"name":"sender","type":"address","indexed":true,"internalType":"address"}],"anonymous":false},{"type":"event","name":"Unpaused","inputs":[{"name":"account","type":"address","indexed":false,"internalType":"address"}],"anonymous":false},{"type":"event","name":"Withdraw","inputs":[{"name":"user","type":"address","indexed":true,"internalType":"address"},{"name":"amount","type":"uint256","indexed":false,"internalType":"uint256"}],"anonymous":false},{"type":"error","name":"AccessControlBadConfirmation","inputs":[]},{"type":"error","name":"AccessControlUnauthorizedAccount","inputs":[{"name":"account","type":"address","internalType":"address"},{"name":"neededRole","type":"bytes32","internalType":"bytes32"}]},{"type":"error","name":"AddressEmptyCode","inputs":[{"name":"target","type":"address","internalType":"address"}]},{"type":"error","name":"AddressInsufficientBalance","inputs":[{"name":"account","type":"address","internalType":"address"}]},{"type":"error","name":"EnforcedPause","inputs":[]},{"type":"error","name":"ExpectedPause","inputs":[]},{"type":"error","name":"FailedInnerCall","inputs":[]},{"type":"error","name":"KipuBankV3_BankCapExceeded","inputs":[{"name":"newTotal","type":"uint256","internalType":"uint256"},{"name":"cap","type":"uint256","internalType":"uint256"}]},{"type":"error","name":"KipuBankV3_InsufficientLiquidity","inputs":[]},{"type":"error","name":"KipuBankV3_InsufficientOutputAmount","inputs":[]},{"type":"error","name":"KipuBankV3_InvalidAddress","inputs":[]},{"type":"error","name":"KipuBankV3_NoBalance","inputs":[]},{"type":"error","name":"KipuBankV3_NotAdmin","inputs":[{"name":"who","type":"address","internalType":"address"}]},{"type":"error","name":"KipuBankV3_PairDoesNotExist","inputs":[]},{"type":"error","name":"KipuBankV3_TransferFailed","inputs":[{"name":"to","type":"address","internalType":"address"},{"name":"amount","type":"uint256","internalType":"uint256"}]},{"type":"error","name":"KipuBankV3_WETHDepositFailed","inputs":[]},{"type":"error","name":"KipuBankV3_ZeroAmount","inputs":[]},{"type":"error","name":"ReentrancyGuardReentrantCall","inputs":[]},{"type":"error","name":"SafeERC20FailedOperation","inputs":[{"name":"token","type":"address","internalType":"address"}]}],"bytecode":{"object":"0x60e060405234801561000f575f5ffd5b50604051611a1c380380611a1c83398101604081905261002e9161017e565b6001805460ff191681556002556001600160a01b038416158061005857506001600160a01b038316155b8061006a57506001600160a01b038216155b156100885760405163f7e9368160e01b815260040160405180910390fd5b6001600160a01b0380851660a052838116608052821660c05260058190556100b05f336100ba565b50505050506101c6565b5f828152602081815260408083206001600160a01b038516845290915281205460ff1661015a575f838152602081815260408083206001600160a01b03861684529091529020805460ff191660011790556101123390565b6001600160a01b0316826001600160a01b0316847f2f8788117e7eff1d82e926ec794901d17c78024a50270940304540a733656f0d60405160405180910390a450600161015d565b505f5b92915050565b80516001600160a01b0381168114610179575f5ffd5b919050565b5f5f5f5f60808587031215610191575f5ffd5b61019a85610163565b93506101a860208601610163565b92506101b660408601610163565b6060959095015193969295505050565b60805160a05160c0516117ed61022f5f395f81816104610152818161074c01526107bf01525f81816102820152610d0c01525f81816103c5015281816105ad015281816108b6015281816109e501528181610ce201528181611269015261138c01526117ed5ff3fe60806040526004361061014e575f3560e01c80635c975abb116100b5578063a217fddf1161006e578063a217fddf1461038d578063a6777d2e14610425578063ad5c464814610450578063b2118a8d14610483578063d547741f146104a2578063ff312ad1146104c1576101a0565b80635c975abb1461037657806375b238fc1461038d5780638456cb59146103a057806389a30271146103b457806391d14854146103e757806399c6d2de14610406576101a0565b80632f2ff15d116101075780632f2ff15d146102dd57806336568abe146102fc5780633f4ba83a1461031b5780634b05f1321461032f5780635151b68c146103445780635358fbda14610363576101a0565b806301ffc9a7146101d75780630fa014e61461020b578063248a9ca31461022e5780632db4fe491461025c5780632dd31000146102715780632e1a7d4d146102bc576101a0565b366101a05760405162461bcd60e51b815260206004820152601960248201527f53656e642045544820766961206465706f73697445544828290000000000000060448201526064015b60405180910390fd5b60405162461bcd60e51b815260206004820152600c60248201526b125b9d985b1a590818d85b1b60a21b6044820152606401610197565b3480156101e2575f5ffd5b506101f66101f136600461156e565b6104d6565b60405190151581526020015b60405180910390f35b348015610216575f5ffd5b5061022060075481565b604051908152602001610202565b348015610239575f5ffd5b50610220610248366004611595565b5f9081526020819052604090206001015490565b348015610267575f5ffd5b5061022060045481565b34801561027c575f5ffd5b506102a47f000000000000000000000000000000000000000000000000000000000000000081565b6040516001600160a01b039091168152602001610202565b3480156102c7575f5ffd5b506102db6102d6366004611595565b61050c565b005b3480156102e8575f5ffd5b506102db6102f73660046115c0565b610617565b348015610307575f5ffd5b506102db6103163660046115c0565b610641565b348015610326575f5ffd5b506102db610679565b34801561033a575f5ffd5b5061022060055481565b34801561034f575f5ffd5b506102db61035e366004611595565b6106ac565b6102db610371366004611595565b61071a565b348015610381575f5ffd5b5060015460ff166101f6565b348015610398575f5ffd5b506102205f81565b3480156103ab575f5ffd5b506102db6107ef565b3480156103bf575f5ffd5b506102a47f000000000000000000000000000000000000000000000000000000000000000081565b3480156103f2575f5ffd5b506101f66104013660046115c0565b610820565b348015610411575f5ffd5b506102db6104203660046115ee565b610848565b348015610430575f5ffd5b5061022061043f366004611620565b60036020525f908152604090205481565b34801561045b575f5ffd5b506102a47f000000000000000000000000000000000000000000000000000000000000000081565b34801561048e575f5ffd5b506102db61049d36600461163b565b610957565b3480156104ad575f5ffd5b506102db6104bc3660046115c0565b610aa0565b3480156104cc575f5ffd5b5061022060065481565b5f6001600160e01b03198216637965db0b60e01b148061050657506301ffc9a760e01b6001600160e01b03198316145b92915050565b610514610ac4565b61051c610aec565b805f0361053c5760405163fa209c9360e01b815260040160405180910390fd5b335f908152600360205260409020548181101561056c5760405163766cfa1560e01b815260040160405180910390fd5b610576828261168d565b335f908152600360205260408120919091556006805484929061059a90849061168d565b909155506105d490506001600160a01b037f0000000000000000000000000000000000000000000000000000000000000000163384610b10565b60405182815233907f884edad9ce6fa2440d8a54cc123490eb96d2768479d49ff9c7366125a94243649060200160405180910390a2506106146001600255565b50565b5f8281526020819052604090206001015461063181610b6f565b61063b8383610b79565b50505050565b6001600160a01b038116331461066a5760405163334bd91960e11b815260040160405180910390fd5b6106748282610c08565b505050565b6106835f33610820565b6106a2576040516312ee9d6b60e01b8152336004820152602401610197565b6106aa610c71565b565b6106b65f33610820565b6106d5576040516312ee9d6b60e01b8152336004820152602401610197565b600580549082905560408051828152602081018490527fad92000a3e3f2046f70283b39f42a061dab5c4a40adcc51256d0f8b3dc8f8b5a910160405180910390a15050565b610722610ac4565b61072a610aec565b345f0361074a5760405163fa209c9360e01b815260040160405180910390fd5b7f00000000000000000000000000000000000000000000000000000000000000006001600160a01b031663d0e30db0346040518263ffffffff1660e01b81526004015f604051808303818588803b1580156107a3575f5ffd5b505af11580156107b5573d5f5f3e3d5ffd5b50505050506107e57f00000000000000000000000000000000000000000000000000000000000000003483610cc3565b6106146001600255565b6107f95f33610820565b610818576040516312ee9d6b60e01b8152336004820152602401610197565b6106aa610e06565b5f918252602082815260408084206001600160a01b0393909316845291905290205460ff1690565b610850610ac4565b610858610aec565b6001600160a01b03831661087f5760405163f7e9368160e01b815260040160405180910390fd5b815f0361089f5760405163fa209c9360e01b815260040160405180910390fd5b6108b46001600160a01b038416333085610e41565b7f00000000000000000000000000000000000000000000000000000000000000006001600160a01b0316836001600160a01b031603610942576108f73383610e7a565b60408051838152602081018490526001600160a01b0385169133917f6fde5ce3dd294f29ef60b1457f12ff06eee323d45cf4b67606a4cafd18b6b943910160405180910390a361094d565b61094d838383610cc3565b6106746001600255565b6109615f33610820565b610980576040516312ee9d6b60e01b8152336004820152602401610197565b610988610ac4565b6001600160a01b03831615806109a557506001600160a01b038216155b156109c35760405163f7e9368160e01b815260040160405180910390fd5b805f036109e35760405163fa209c9360e01b815260040160405180910390fd5b7f00000000000000000000000000000000000000000000000000000000000000006001600160a01b0316836001600160a01b031603610a355760405163f7e9368160e01b815260040160405180910390fd5b610a496001600160a01b0384168383610b10565b816001600160a01b0316836001600160a01b03167f9b793652de97f04c5168920587bad4b1c6345295a8f5ad31c59ff946a26f91d283604051610a8e91815260200190565b60405180910390a36106746001600255565b5f82815260208190526040902060010154610aba81610b6f565b61063b8383610c08565b6002805403610ae657604051633ee5aeb560e01b815260040160405180910390fd5b60028055565b60015460ff16156106aa5760405163d93c066560e01b815260040160405180910390fd5b6040516001600160a01b0383811660248301526044820183905261067491859182169063a9059cbb906064015b604051602081830303815290604052915060e01b6020820180516001600160e01b038381831617835250505050610f33565b6106148133610f94565b5f610b848383610820565b610c01575f838152602081815260408083206001600160a01b03861684529091529020805460ff19166001179055610bb93390565b6001600160a01b0316826001600160a01b0316847f2f8788117e7eff1d82e926ec794901d17c78024a50270940304540a733656f0d60405160405180910390a4506001610506565b505f610506565b5f610c138383610820565b15610c01575f838152602081815260408083206001600160a01b0386168085529252808320805460ff1916905551339286917ff6391f5c32d9c69d2a47ea670b442974b53935d1edc7fd64eb21e047a839171b9190a4506001610506565b610c79610fd1565b6001805460ff191690557f5db9ee0a495bf2e6ff9c91a7834c1ba4fdd244a5e8aa4e537bd38aeae4b073aa335b6040516001600160a01b03909116815260200160405180910390a1565b60405163e6a4390560e01b81526001600160a01b0384811660048301527f0000000000000000000000000000000000000000000000000000000000000000811660248301525f917f00000000000000000000000000000000000000000000000000000000000000009091169063e6a4390590604401602060405180830381865afa158015610d53573d5f5f3e3d5ffd5b505050506040513d601f19601f82011682018060405250810190610d7791906116a0565b90506001600160a01b038116610da057604051636273018760e11b815260040160405180910390fd5b5f610dad82868686610ff4565b9050610db93382610e7a565b60408051858152602081018390526001600160a01b0387169133917f6fde5ce3dd294f29ef60b1457f12ff06eee323d45cf4b67606a4cafd18b6b943910160405180910390a35050505050565b610e0e610aec565b6001805460ff1916811790557f62e78cea01bee320cd4e420270b5ea74000d11b0c9f74754ebdbfc544b05a25833610ca6565b6040516001600160a01b03848116602483015283811660448301526064820183905261063b9186918216906323b872dd90608401610b3d565b5f610e868260646116bb565b90505f81600454610e9791906116d2565b9050600554811115610eca57600554604051631f80a4c160e11b8152610197918391600401918252602082015260400190565b6001600160a01b0384165f9081526003602052604081208054859290610ef19084906116d2565b925050819055508260065f828254610f0991906116d2565b9091555050600481905560078054600191905f90610f289084906116d2565b909155505050505050565b5f610f476001600160a01b0384168361143c565b905080515f14158015610f6b575080806020019051810190610f6991906116e5565b155b1561067457604051635274afe760e01b81526001600160a01b0384166004820152602401610197565b610f9e8282610820565b610fcd5760405163e2517d3f60e01b81526001600160a01b038216600482015260248101839052604401610197565b5050565b60015460ff166106aa57604051638dfc202b60e01b815260040160405180910390fd5b5f5f5f866001600160a01b0316630902f1ac6040518163ffffffff1660e01b8152600401606060405180830381865afa158015611033573d5f5f3e3d5ffd5b505050506040513d601f19601f82011682018060405250810190611057919061171f565b50915091505f866001600160a01b0316886001600160a01b0316630dfe16816040518163ffffffff1660e01b8152600401602060405180830381865afa1580156110a3573d5f5f3e3d5ffd5b505050506040513d601f19601f820116820180604052508101906110c791906116a0565b6001600160a01b03161490505f816110e857826001600160701b03166110f3565b836001600160701b03165b90505f8261110a57846001600160701b0316611115565b836001600160701b03165b9050811580611122575080155b1561114057604051631060694760e11b815260040160405180910390fd5b6111546001600160a01b038a168b8a610b10565b6040516370a0823160e01b81526001600160a01b038b811660048301525f9184918c16906370a0823190602401602060405180830381865afa15801561119c573d5f5f3e3d5ffd5b505050506040513d601f19601f820116820180604052508101906111c0919061176b565b6111ca919061168d565b9050805f036111ec5760405163fa209c9360e01b815260040160405180910390fd5b5f6111f9826103e56116bb565b611205856103e86116bb565b61120f91906116d2565b8361121c846103e56116bb565b61122691906116bb565b6112309190611782565b90508881101561125257604051620a508960e51b815260040160405180910390fd5b6040516370a0823160e01b81523060048201525f907f00000000000000000000000000000000000000000000000000000000000000006001600160a01b0316906370a0823190602401602060405180830381865afa1580156112b6573d5f5f3e3d5ffd5b505050506040513d601f19601f820116820180604052508101906112da919061176b565b90505f5f876112ea57835f6112ed565b5f845b915091508e6001600160a01b031663022c0d9f8383306040518463ffffffff1660e01b81526004016113499392919092835260208301919091526001600160a01b031660408201526080606082018190525f9082015260a00190565b5f604051808303815f87803b158015611360575f5ffd5b505af1158015611372573d5f5f3e3d5ffd5b50506040516370a0823160e01b81523060048201528592507f00000000000000000000000000000000000000000000000000000000000000006001600160a01b031691506370a0823190602401602060405180830381865afa1580156113da573d5f5f3e3d5ffd5b505050506040513d601f19601f820116820180604052508101906113fe919061176b565b611408919061168d565b9a508b8b101561142a57604051620a508960e51b815260040160405180910390fd5b50505050505050505050949350505050565b606061144983835f611450565b9392505050565b6060814710156114755760405163cd78605960e01b8152306004820152602401610197565b5f5f856001600160a01b0316848660405161149091906117a1565b5f6040518083038185875af1925050503d805f81146114ca576040519150601f19603f3d011682016040523d82523d5f602084013e6114cf565b606091505b50915091506114df8683836114e9565b9695505050505050565b6060826114fe576114f982611545565b611449565b815115801561151557506001600160a01b0384163b155b1561153e57604051639996b31560e01b81526001600160a01b0385166004820152602401610197565b5080611449565b8051156115555780518082602001fd5b604051630a12f52160e11b815260040160405180910390fd5b5f6020828403121561157e575f5ffd5b81356001600160e01b031981168114611449575f5ffd5b5f602082840312156115a5575f5ffd5b5035919050565b6001600160a01b0381168114610614575f5ffd5b5f5f604083850312156115d1575f5ffd5b8235915060208301356115e3816115ac565b809150509250929050565b5f5f5f60608486031215611600575f5ffd5b833561160b816115ac565b95602085013595506040909401359392505050565b5f60208284031215611630575f5ffd5b8135611449816115ac565b5f5f5f6060848603121561164d575f5ffd5b8335611658816115ac565b92506020840135611668816115ac565b929592945050506040919091013590565b634e487b7160e01b5f52601160045260245ffd5b8181038181111561050657610506611679565b5f602082840312156116b0575f5ffd5b8151611449816115ac565b808202811582820484141761050657610506611679565b8082018082111561050657610506611679565b5f602082840312156116f5575f5ffd5b81518015158114611449575f5ffd5b80516001600160701b038116811461171a575f5ffd5b919050565b5f5f5f60608486031215611731575f5ffd5b61173a84611704565b925061174860208501611704565b9150604084015163ffffffff81168114611760575f5ffd5b809150509250925092565b5f6020828403121561177b575f5ffd5b5051919050565b5f8261179c57634e487b7160e01b5f52601260045260245ffd5b500490565b5f82518060208501845e5f92019182525091905056fea2646970667358221220c51147d7015425abaed8f20a14a8c002ee396e2b260fc2c66899f4dbb6a0572164736f6c634300081e0033","linkReferences":{}},"methodIdentifiers":{"ADMIN_ROLE()":"75b238fc","DEFAULT_ADMIN_ROLE()":"a217fddf","FACTORY()":"2dd31000","USDC()":"89a30271","WETH()":"ad5c4648","depositETH(uint256)":"5358fbda","depositToken(address,uint256,uint256)":"99c6d2de","getRoleAdmin(bytes32)":"248a9ca3","grantRole(bytes32,address)":"2f2ff15d","hasRole(bytes32,address)":"91d14854","pause()":"8456cb59","paused()":"5c975abb","renounceRole(bytes32,address)":"36568abe","rescueERC20(address,address,uint256)":"b2118a8d","revokeRole(bytes32,address)":"d547741f","s_bankCapUsd8()":"4b05f132","s_depositOps()":"0fa014e6","s_totalUsdDeposited8()":"2db4fe49","s_totalUsdcInVault()":"ff312ad1","s_usdcBalances(address)":"a6777d2e","supportsInterface(bytes4)":"01ffc9a7","unpause()":"3f4ba83a","updateBankCap(uint256)":"5151b68c","withdraw(uint256)":"2e1a7d4d"},"id":35}